:020000040000fa
:080000000001040000000000f3
:020000040000fa
:040008000c030000e5
:020000040000fa
:04000c000c030000e1
:020000040000fa
:040010000c030000dd
:020000040000fa
:040014000c030000d9
:020000040000fa
:040018000c030000d5
:020000040000fa
:04001c000c030000d1
:020000040000fa
:040020000c030000cd
:020000040000fa
:040024000c030000c9
:020000040000fa
:040028000c030000c5
:020000040000fa
:04002c000c030000c1
:020000040000fa
:040030000c030000bd
:020000040000fa
:04003400a202000024
:020000040000fa
:040038000c030000b5
:020000040000fa
:04003c000c030000b1
:020000040000fa
:040040000c030000ad
:020000040000fa
:04004400f8020000be
:020000040000fa
:040048000c030000a5
:020000040000fa
:04004c000c030000a1
:020000040000fa
:040050000c0300009d
:020000040000fa
:04005400c8010000df
:020000040000fa
:040058000c03000095
:020000040000fa
:04005c000c03000091
:020000040000fa
:040060000c0300008d
:020000040000fa
:040064000c03000089
:020000040000fa
:040068000c03000085
:020000040000fa
:04006c000c03000081
:020000040000fa
:040070000c0300007d
:020000040000fa
:040074000c03000079
:020000040000fa
:040078000c03000075
:020000040000fa
:04007c000c03000071
:020000040000fa
:040080000c0300006d
:020000040000fa
:040084000c03000069
:020000040000fa
:040088000c03000065
:020000040000fa
:04008c000c03000061
:020000040000fa
:040090000c0300005d
:020000040000fa
:040094000c03000059
:020000040000fa
:040098000c03000055
:020000040000fa
:04009c000c03000051
:020000040000fa
:0400a0000c0300004d
:020000040000fa
:0400a4000c03000049
:020000040000fa
:0400a8000c03000045
:020000040000fa
:0400ac000c03000041
:020000040000fa
:0400b0000c0300003d
:020000040000fa
:0400b4000c03000039
:020000040000fa
:0400b8000c03000035
:020000040000fa
:0400bc000c03000031
:020000040000fa
:0400c0000c0300002d
:020000040000fa
:0400c4000c03000029
:020000040000fa
:0400c8000c03000025
:020000040000fa
:0400cc000c03000021
:020000040000fa
:0400d0000c0300001d
:020000040000fa
:0400d4000c03000019
:020000040000fa
:0400d8000c03000015
:020000040000fa
:040108000c030000e4
:020000040000fa
:04010c000c030000e0
:020000040000fa
:040110000c030000dc
:020000040000fa
:040114000c030000d8
:020000040000fa
:040118000c030000d4
:020000040000fa
:04011c000c030000d0
:020000040000fa
:040120000c030000cc
:020000040000fa
:040124000c030000c8
:020000040000fa
:040128000c030000c4
:020000040000fa
:04012c000c030000c0
:020000040000fa
:040130000c030000bc
:020000040000fa
:04013400a202000023
:020000040000fa
:040138000c030000b4
:020000040000fa
:04013c000c030000b0
:020000040000fa
:040140000c030000ac
:020000040000fa
:04014400f8020000bd
:020000040000fa
:040148000c030000a4
:020000040000fa
:04014c000c030000a0
:020000040000fa
:040150000c0300009c
:020000040000fa
:04015400c8010000de
:020000040000fa
:040158000c03000094
:020000040000fa
:04015c000c03000090
:020000040000fa
:040160000c0300008c
:020000040000fa
:040164000c03000088
:020000040000fa
:040168000c03000084
:020000040000fa
:04016c000c03000080
:020000040000fa
:040170000c0300007c
:020000040000fa
:040174000c03000078
:020000040000fa
:040178000c03000074
:020000040000fa
:04017c000c03000070
:020000040000fa
:040180000c0300006c
:020000040000fa
:040184000c03000068
:020000040000fa
:040188000c03000064
:020000040000fa
:04018c000c03000060
:020000040000fa
:040190000c0300005c
:020000040000fa
:040194000c03000058
:020000040000fa
:040198000c03000054
:020000040000fa
:04019c000c03000050
:020000040000fa
:0401a0000c0300004c
:020000040000fa
:0401a4000c03000048
:020000040000fa
:0401a8000c03000044
:020000040000fa
:0401ac000c03000040
:020000040000fa
:0401b0000c0300003c
:020000040000fa
:0401b4000c03000038
:020000040000fa
:0401b8000c03000034
:020000040000fa
:0401bc000c03000030
:020000040000fa
:0401c0000c0300002c
:020000040000fa
:0401c4000c03000028
:020000040000fa
:0401c8000c03000024
:020000040000fa
:0401cc000c03000020
:020000040000fa
:0401d0000c0300001c
:020000040000fa
:0401d4000c03000018
:020000040000fa
:0401d8000c03000014
:020000040000fa
:100200000f9520000eff20000e0188000000000066
:10021000000020000000e000020032000001200089
:100220002002880014000700260107000000e000fb
:1002300003003a00006321000100200002003700a3
:100240000000200001002000810f7000010032003a
:1002500014000700000020000000e000020032004f
:1002600000000200000000003e0902000000000043
:100270000040da000000fe004440a90060042000b5
:100280000000e0000300320000002000a001880010
:100290004440a800000006008a1f78008b1f7800e9
:1002a0000000060091018800800478000000eb0047
:1002b0001a003700e284440032a0b4009905ba0065
:1002c000e284440032a0b4009906ba00e2844400fb
:1002d00032a0b4000006eb00476fde00fd07b2005d
:1002e000636ce10003003a00ebff07000000eb0045
:1002f0000a003700606ce10004003a00005deb008a
:100300008b05e900fdff3e00040037006168e10055
:10031000010032000086eb000b00070019c7ba008d
:100320001905ba000e04e00003003a000a00e000dc
:10033000e0ff3a0000000600fe07b2009e018800c0
:100340008a047800f5ff3700395dba008b05e900b3
:100350000c003200295dba008b05e900080032006c
:100360000c00e00003003a00e284440032a0b40034
:10037000f5ff370019ddba008b05e900faff3a00f6
:100380008904e800e184440032a0b40000000600c3
:100390003600f800809fbe00829fbe00849fbe0092
:1003a000869fbe003400f80000002000a0018800f5
:1003b0000000fa00f408a800101480008000eb0090
:1003c000c50107006040880071408800201480004b
:1003d0008000eb00c0010700804088009140880049
:1003e000301480008000eb00bb010700a0408800b3
:1003f000b1408800001480008000eb00b6010700c7
:10040000c0408800d140880060408000714080007a
:100410000200200003482400090107000002be007a
:1004200020488000314880000001be000400be006a
:100430007702070060418800714188008040800099
:10044000914080000200200003482400fc000700c7
:100450000002be0040488000514880000001be00fc
:100460000400be006a0207008041880091418800b4
:10047000a0408000b140800002002000034824001a
:10048000ef0007000002be00604880007148800055
:100490000001be000400be005d020700a04188000c
:1004a000b1418800c0408000d1408000020020009f
:1004b00003482400e20007000002be0080488000dc
:1004c000914880000001be000400be0050020700f9
:1004d000c0418800d141880064418000754180009e
:1004e00080418000914180000001be000400be00f8
:1004f000470207000041880011418800a4418000a4
:10050000b5418000c0418000d14180000001be00a3
:100510000400be003e0207002041880031418800ef
:100520008560a9000080fa003400f9004f03be0086
:100530004f02be004f01be004f00be003600f90062
:10054000004006003600f800809fbe00829fbe007b
:10055000849fbe00869fbe003400f800000020008b
:10056000a00188000000fa00704780000000e80049
:100570007047880071478000803e2000808f5000c7
:1005800012003a00804780000000e80080478800a1
:1005900080478000e10f500001003a008a07070001
:1005a00080478000e20f500002003a00ca070700af
:1005b000df07070080478000e30f500002003a0089
:1005c00057080700f028ef00ee28ef008460a9002c
:1005d0000080fa003400f9004f03be004f02be0055
:1005e0004f01be004f00be003600f900004006007b
:1005f0003400f800881f780008002000a801880057
:100600004f0478000000fa0084e0a9000080fa009e
:100610003400f900004006000040da000000fe004f
:100620008460a900e7006000f2ff2800cc08dd002c
:10063000a304800003016100680060000281700073
:1006400071ff2f00a2048800620480008280600095
:1006500081007000610488000000060084e0a900a9
:10066000e7006000f2ff2800cc08dd00b304800042
:100670000301610068006000028170004300de0039
:10068000b204880061006000f1f72f004700dd0030
:100690006204800082806000810070006104880034
:1006a000000006000021ef001108880020088800e3
:1006b000000006000a21ef007108880090088800f9
:1006c000000006000000050003f0a200889fbe00a5
:1006d0008a9fbe008c1f78003e0107004501330051
:1006e0006450e1004f0032006420e100520032000b
:1006f00003826c0007003b000905d0000306d00010
:10070000820f54000c065d00020039000200320026
:1007100089017800030678008582550004003d00b9
:100720000003fd008103fd008502ea008b85420085
:10073000840f720002003b0060001000e08018008f
:100740006011b8000005eb007a28e1000a003900ca
:1007500006007800c75ddd00f707b20087807500ee
:100760002d003700828171000a0178006105600068
:100770008180d1000080d3008502e900f9ff3b00b1
:10078000060440008784480002003b006004140017
:10079000e0841c000988a300070032008a817100f0
:1007a00082817100610164008904d1000884d30052
:1007b0008b05e800170037000978a30013003a0002
:1007c0000b00e000130034008b05e900080444002e
:1007d00089844c000a4474000978a3000d003a0093
:1007e0000b00e000070034008b05e900080444001a
:1007f00089844c0001003a000b0020000978a30016
:10080000f7ff32000001eb00020037008281710027
:100810000a017800b40007000cf0a70001f0a00066
:10082000fd0037006420e10002003a00838f6c0075
:10083000fd0033000801be000200be00f6003700d4
:10084000889fbe008a9fbe008c1f7800e1000700d1
:10085000e800330003866c006450e1002e00320093
:100860006420e100330032006150e1002f003200cb
:100870006120e1003100320085855500eb07b000b2
:100880000900200008042000050037000804440087
:1008900089844c000a0031000603430087834b0023
:1008a0000001530081815b00f8ff33000203be00aa
:1008b0000800a0000804440089844c00f6ff3900b9
:1008c000c639dd00830173000100320013002000ef
:1008d0008904d1000884d3000998a30005003200e0
:1008e0000800a7000300a0008904d1000884d300f9
:1008f0008b05e8008904d1000884d3000001eb00d7
:100900000281d2007800070001f0a1000cf0a700de
:1009100001f0a000c00037006420e100c2003200f6
:100920000801be000200be00f7ff37006120e100b1
:10093000bd0032006000b800f3ff37000000200067
:1009400001f82700f0ff3700810378008c000700d2
:100950000001be006000b8000478a30013003a0054
:100960006220e10015003e000d0039008301d10036
:100970000281d3008180d3008301d1000281d300a2
:100980008180d3008301d1000281d3008180d30014
:100990000538b000c42add00f300b2008381720084
:1009a00007f0a70003f0a00000000600f3ff2700f7
:1009b000f2ff2f006110b900fbff370003ff270093
:1009c000f7ff370014002000b1013700f4ff2f00bb
:1009d000af0137001400fa00889fbe008a9fbe0056
:1009e0008c9fbe000004be000205be0068004700e8
:1009f0000a90be000890be00650107000070a700c5
:100a00000bf0a1000bf8a30016003a009e02900024
:100a10003043200080825200b0fe2f000028e10009
:100a20000d003c00b0fc2f000028e1000d00340058
:100a30001e0990008e0890007e0090000501b00015
:100a40000201d1008180d3000080d3008502e8003c
:100a5000fbff3a0089013700010028000000200058
:100a6000860137006000b800840137000001be0035
:100a7000430007000470a70003f0a10003f8a300df
:100a800013003a006509b10010003200090035007a
:100a90006928e1000200350001002800000005007f
:100aa00000004000818048008502e900fcff3a0018
:100ab00000000600f88f4200050035008100d100db
:100ac0000080d3008502e800fcff3a000000060029
:100ad0008000eb00000005006011b80087013700be
:100ae000040020006a013700810020006180550069
:100af0000b003d000b00200061fe2f000100e10013
:100b00001d00340082817100610164008904d100fc
:100b10000884d3000000e800faff3a0071002000ca
:100b200061006400030070000200600009003200f0
:100b300061044400e0844c000988a50005003200ef
:100b40008b05e8006808e10002003a008904d10042
:100b50000884d300f20f20000258e10005003d0098
:100b6000c75ddd00f907b2008980750008007800d4
:100b7000000006000bf827008b007800000005003d
:100b8000c70ade00f107b200f50fb200080032001c
:100b9000e1cf4200020032000170a00024000500f5
:100ba000810f7000010032000408050044000500b8
:100bb000810f700002003a00140005008502e90070
:100bc0000000400081c04800fcff3b000170a00015
:100bd000240005000004be00e9ff07000003be007a
:100be0000405be000200be00e5ff0700844f75004b
:100bf000000006000200be006450e100050036005f
:100c00006420e100020036000968a30001003a00f8
:100c10000800be000160a0004f0678004f05be002e
:100c20004f04be0000000600f0ff2f00f1ff270078
:100c3000f9ff3700000000002800fa00889fbe007e
:100c40008a9fbe008c9fbe0003866b00f7000700e2
:100c50000028a30064003a000128a30067003a00be
:100c60000008a30062003a000108a30065003a00f2
:100c70001e009000be08900081064000ed3fb100cc
:100c8000f4805700ee019000111ab8008e09900010
:100c9000311bb8009e099000311cb800511db800ee
:100ca000f485570046000700fe0190003a00070057
:100cb0008b85e8003e0007008e0990004000070089
:100cc000ee019000340007008b85e8003800070033
:100cd0008e099000400007009e0990001b18b80084
:100ce000890440000a854800fe0190003400070096
:100cf0008b85e80038000700ee0190003000070007
:100d00008e0990001b18b800890440000a8548002d
:100d10000a98a30008003a000402420085824a00b3
:100d200006034b0087834b0008044c0089844c0069
:100d30000a054d008d06e900848272008502730069
:100d40004c3add00850272000100320015002000df
:100d5000443ade001400b2004538de00cb45dd0029
:100d60000b007000c540de00cb4ddd008b807000b5
:100d70004549de00cb55dd000b017100c551de0099
:100d80000d0378005600070003f0a1000cf0a70047
:100d900003f0a000b90037001b18b800850240001e
:100da00006834800e0834b0060044c0007003700d6
:100db0001b18b8000603400087834800faff37007d
:100dc0001b18b8008703400008844800e0844c00ea
:100dd00060054d00000006001b18b8000804400024
:100de00089844800faff37000108a300a0003a00f8
:100df0005800be005801be00e3ff37000008a30002
:100e00009b003a0009047800f9ff37000000000059
:100e1000889fbe008a9fbe008c1f78006dff070070
:100e200074ff330003866c006450e100240032003c
:100e30006420e100270032006150e100220032000e
:100e40006120e100210032008b854200eb07b100f8
:100e50000134b800003ab8000804420089844a000e
:100e6000013ab8000030b8008880400009014a000b
:100e70000400330000004000818048000201490066
:100e80008b05e900c909dd00830170000100320013
:100e900013002000c814de004814dd004709de00fe
:100ea0001200b200c808de00088470000eff0700c0
:100eb00001f0a1000cf0a70001f0a00056ff3700e0
:100ec0006120e10058ff32000801be000200be00b0
:100ed000f7ff37006150e100fcff3a0052ff370096
:100ee0001800200057002000080453000d003d00aa
:100ef0000600200097fc2f000740e1001e00340090
:100f000084827200610260008301d1000281d300fb
:100f10008180d3000080d3000804e800f8ff3a0085
:100f200047002000610460000504740004046400ac
:100f30000d00320061004000e0804800600149007f
:100f4000e081490003b8a500070032000603e8006d
:100f50006538e10004003a008301d1000281d3002a
:100f60008180d3000080d300f87f20000830e100aa
:100f700003003500080378006000b8006011b80075
:100f80004433dd00f300b20083017300000006006b
:100f9000800078005002be005003be004439de00dd
:100fa000f700b200f37f2000030161000900320066
:100fb0000218e10016003a008501720083017300f7
:100fc000838173000008200015003a0040002000d3
:100fd0001300370085017200830173008381730061
:100fe00005003a0004a8be0006a8be0010002000bc
:100ff0000b0037000201e9000402420085824a002a
:1010000006034b0087834b000748a300f9ff32001b
:101010000740a00004a8be0006a8be0020002000d3
:1010200080009800920098000000060068044700c5
:101030000294be000094be00fc0447008694be00eb
:101040008494be0009007800d1ff070008007800f2
:10105000cfff070099007800814f70000b003b0024
:101060000800be00540007004f00b1000300370025
:10107000f3ff2700f2ff2f006110b9004f06be00fa
:101080004f05be004f04be000080fa0000000600bd
:10109000889fbe008a9fbe00841f7800cdfe070097
:1010a0004f00780011003300f0ff2f00838f6c0099
:1010b00006003b00040565000a00a7000800370091
:1010c00009f0a6001000200008003700820f54002d
:1010d000838f5c00030039001000200001003e00f7
:1010e0000000200009f0a7000000ea004f05be0044
:1010f0004f04be000000e00000000600889fbe0014
:101100008a9fbe0000827000040271000482710098
:10111000260032000004be000200be006011b800cc
:101120006b092000950220000182cf000a003900df
:101130000541b1000082cf00070039000541b10030
:101140000982cf00040039000541b1000882cf00b8
:10115000010039000541b100054252001200320081
:101160000a003b0082817100610164008100d100ae
:101170000080d3008984d3000884d3008b05e80065
:101180000442e800f7ff3a00070037000804440073
:1011900089844c0000004800818048008b05e900ec
:1011a0000442e900f9ff3a004ffe07004f05be0078
:1011b0004f04be0000000600e48240001078a30047
:1011c00007003200640240001178a3003400be0022
:1011d0001401be00040032000330a7000000060026
:1011e0003500be001501be000330a000000006005f
:020000040000fa
:1011f000563100003a000000200000004931000094
:101200003a000000563200003a0000004932000067
:101210003a000000525f0000493200003a0000002e
:101220004d500000505400005f5500003a0000008f
:1012300025000000202000002020000020200000c9
:10124000202000002020000020200000202000009e
:1012500020200000005000004944000020570000fa
:101260004f5200004b4900004e470000007600003e
:0c1270005f720000656600003a0000009c
:020000040000fa
:10127c000200fa00881f78004105070027030700c9
:10128c002e0307003503070048030700f428ef007e
:10129c00a0488000b1488000d2cc2c00c3e42300cd
:1012ac00d8fe0700e0428800f142880010c0b3006d
:1012bc00004f7800050037001e80fb00d00e880020
:1012cc0050002000830007001e4fe80020c3b3002d
:1012dc009e40780080cf5000f7ff360000002000c1
:1012ec00812c2400e0488800f1488800000024008c
:1012fc00c16924000049880011498800c05a2c009b
:10130c00717223002049880031498800d00e80007a
:10131c008000eb00edfd07000043880011438800be
:10132c0008003700e0478000f1478000d2cc2c0049
:10133c00c3dc2300b3fe0700e0408800f1408800c6
:10134c005f010700e0478000f1478000d2cc2c0001
:10135c00c3dc2300abfe07000002be00c0418000ce
:10136c00d141800018c0b3000001be000400be00d3
:10137c0091fd07000000e000010034000044eb0088
:10138c000804e00015003200a0418000b14180004b
:10139c0018c0b300020020000316240086fd0700cd
:1013ac000000e000010035000044eb000804e00000
:1013bc00dcff3a000a003700e0478000f14780006c
:1013cc00a2702d0033c223008efe0700e04088007f
:1013dc00f1408800d1010700010037000000000037
:1013ec00a0418000b141800018c0b3000200200071
:1013fc000316240072fd07000000e00001003d0010
:10140c000044eb000804e00014003200e0478000c8
:10141c00f1478000a2702d0033c2230079fe070033
:10142c000002be00c0418000d141800018c0b30052
:10143c000001be000400be005ffd07000000e000dc
:10144c00010034000044eb000804e000daff3a002d
:10145c00030037002b0007000100370000000000dc
:10146c00c0418000d141800018c0b3006011b800a9
:10147c0053fd07000000e00001003d000044eb00bc
:10148c000804e00011003200e0478000f1478000c2
:10149c00d2cc2c00c3dc23005afe07000002be0095
:1014ac00c0418000d141800018c0b3000001be00d3
:1014bc000400be0042fd07000000e00001003d00fa
:1014cc000044eb000804e000e2ff3a0000000000da
:1014dc009cff37000400fa00100798000000eb0096
:1014ec00000f7800010037001e0fe8001e0090006e
:1014fc009e007800808f5000fbff39000080fa00be
:10150c00000006000000fa00889fbe008a9fbe0003
:10151c008c9fbe000441800015418000404180003a
:10152c00514180000001be000400be0063fc0700b6
:10153c006042880071428800e4418000f5418000df
:10154c0060418000714180000001be000400be00bb
:10155c005afc07008042880091428800604280005b
:10156c00714280006011b8005afd07000000e000d5
:10157c00ae00320080428000914280006011b800c1
:10158c0054fd07000000e000a80032006442800017
:10159c007542800080428000914280000001be00b4
:1015ac000400be00a3fc07000002be00c04880007f
:1015bc00d14880000001be000400be0011fe0700ef
:1015cc00c0428800d1428800e4428000f54280008d
:1015dc00c0428000d14280000001be000400be0069
:1015ec0037fc0700e0428800f1428800e4428000aa
:1015fc00f542800060418000714180000001be0016
:10160c000400be002dfc0700804388009143880035
:10161c008443800095438000a0438000b143800048
:10162c000001be000400be0024fc07000002be0046
:10163c00e0488000f14880000001be000400be00bc
:10164c00f0fd07000002be00004380001143800043
:10165c000001be000400be0019fc07000004be001f
:10166c000449800015498000c0478000d1478000a4
:10167c000001be000400be00e2fd07000002be0037
:10168c0080438000914380000001be000400be0036
:10169c00dcfd07000001be000800be0008fc0700ce
:1016ac000004be002449800035498000c0478000fa
:1016bc00d14780000001be000400be005dfc0700a5
:1016cc000005be008c4380009d438000a043800039
:1016dc00b14380000001be00f9fb07000001be0011
:1016ec000c00be00f5fb07000002be00c0438000ea
:1016fc00d14380000001be000400be00f0fb0700d7
:10170c000001be000a00be00befd07000001be00c5
:10171c000800be00eafb0700a0428800b142880026
:10172c00a0428000b142800018c0b3006011b80024
:10173c00a1fc07000000e000010035000044eb00b4
:10174c000804e00002003200200e8000da21ef00d5
:10175c00200e80008000eb00dcfc0700d2cc2c00bb
:10176c00c3fc2300a7fd07000002be00a0428000be
:10177c00b142800018c0b3000001be000400be00de
:10178c008dfc07000000e000010035000044eb0078
:10179c000804e00002003200200e8000da21ef0085
:1017ac00a0428000b142800018c0b3006011b800a4
:1017bc0083fc07000000e00001003d000044eb004a
:1017cc000804e00019003200200e80008000eb00bd
:1017dc00befc0700d2cc2c00c3f4230089fd07000b
:1017ec000002be00a0428000b142800018c0b300cd
:1017fc000001be000400be0071fc07000000e00008
:10180c0001003d000044eb000804e000070032003a
:10181c00a0428000b14280000001be00a8fb07007e
:10182c008ffc070000007800d00e8800004180007b
:10183c001141800040418800514188006041800086
:10184c0071418000e0418800f141880080418000b6
:10185c00914180000042880011428800a041800024
:10186c00b14180002042880031428800c041800094
:10187c00d14180004042880051428800a043800042
:10188c00b1438000c0438800d1438800804380006e
:10189c0091438000a0438800b1438800a04280009f
:1018ac00b142800000438800114388004f06be00ff
:1018bc004f05be004f04be000080fa000000060079
:1018cc000000fa00889fbe00e4408000f5408000d4
:1018dc00c0418000d14180000001be000400be0068
:1018ec0076fb070080458800914588008445800080
:1018fc0095458000a0458000b14580000001be00e8
:10190c000400be006dfb07000002be0040498000d1
:10191c00514980000001be000400be0039fd0700e3
:10192c000002be0060438000714380000001be00d5
:10193c000400be0062fb07000004be006449800086
:10194c0075498000c0478000d14780000001be006f
:10195c000400be002bfd07000002be008045800085
:10196c00914580000001be000400be0025fd07006b
:10197c000001be000800be0051fb07004043880078
:10198c0051438800200e80008000eb004ffc0700c4
:10199c00d2cc2c00c3f423001afd07000002be00b9
:1019ac00404380005143800018c0b3000001be00ca
:1019bc000400be0000fc07000000e0000100340041
:1019cc000044eb000804e0000a003200200e800006
:1019dc008000eb003dfc0700a299290093f923003d
:1019ec0008fd07001efc070000007800d00e8800e0
:1019fc0037003700404380005143800018c0b300cb
:101a0c006011b800ecfb07000000e000010034009e
:101a1c000044eb000804e0000a003200200e8000b5
:101a2c008000eb0029fc0700f226210033b02300d4
:101a3c00f4fc07000afc070000007800d00e8800b8
:101a4c0023003700404380005143800018c0b3008e
:101a5c006011b800dafb07000000e00001003d0057
:101a6c000044eb000804e00019003200200e800056
:101a7c008000eb0015fc0700a299290093f12300cc
:101a8c00e0fc07000002be00404380005143800090
:101a9c0018c0b3000001be000400be00c8fb070064
:101aac000000e00001003d000044eb000804e000f1
:101abc000700320040438000514380000001be000b
:101acc00fffa0700e6fb070000007800d00e880044
:101adc00c0458000d1458000e0458800f145880074
:101aec00a0458000b1458000c0458800d1458800e4
:101afc008045800091458000a0458800b145880054
:101b0c00404380005143800060438800714388004b
:101b1c004f04be000080fa00000006000000fa002e
:101b2c00889fbe000448800015488000a0418000ba
:101b3c00b14180000001be000400be00dffa0700c6
:101b4c00004588001145880004458000154580003b
:101b5c0020458000314580000001be000400be001d
:101b6c00d6fa07000002be00a0498000b1498000ef
:101b7c000001be000400be00a2fc07000002be0073
:101b8c00e0438000f14380000001be000400be0071
:101b9c00cbfa07000004be00c4498000d549800080
:101bac00c0478000d14780000001be000400be0089
:101bbc0094fc07000002be00004580001145800027
:101bcc000001be000400be008efc07000001be0038
:101bdc000800be00bafa0700a0448800b14488008f
:101bec00a4448000b5448000e0408000f1408000b7
:101bfc0018c0b3000001be000400be0070fb07005b
:101c0c000000e00001003d000044eb000804e0008f
:101c1c0005003200e0408000f1408000a0448800c4
:101c2c00b144880018003700e0478000f14780007d
:101c3c00a2702d0033c2230072fc07000002be000c
:101c4c00a0448000b144800018c0b3000001be0065
:101c5c000400be005afb07000000e00001003d003c
:101c6c000044eb000804e00007003200e04780006d
:101c7c00f1478000a2702d0033c2230061fc0700e5
:101c8c00a0448800b1448800404580005145800044
:101c9c0060458800714588002045800031458000f2
:101cac004045880051458800004580001145800062
:101cbc002045880031458800a0448000b144800054
:101ccc00e0438800f1438800a4448000b5448000c0
:101cdc00c0418000d14180000001be000400be0064
:101cec0076fa0700004688001146880004468000fa
:101cfc001546800020468000314680000001be0061
:101d0c000400be006dfa07000002be00004a80000d
:101d1c00114a80000001be000400be0039fc07001f
:101d2c000002be0060438000714380000001be00d1
:101d3c000400be0062fa07000004be00244a8000c2
:101d4c00354a8000c0478000d14780000001be00aa
:101d5c000400be002bfc07000002be000046800001
:101d6c00114680000001be000400be0025fc0700e7
:101d7c000001be000800be0051fa07002044880094
:101d8c0031448800200e80008000eb004ffb0700e0
:101d9c00d2cc2c00c3f423001afc07000002be00b6
:101dac00204480003144800018c0b3000001be0004
:101dbc000400be0000fb07000000e000010034003e
:101dcc000044eb000804e0000a003200200e800002
:101ddc008000eb003dfb0700d2cc2c00c3fc2300a1
:101dec0008fc07001efb070000007800d00e8800de
:101dfc0037003700204480003144800018c0b30005
:101e0c006011b800ecfa07000000e000010034009b
:101e1c000044eb000804e0000a003200200e8000b1
:101e2c008000eb0029fb0700f226210033b02300d1
:101e3c00f4fb07000afb070000007800d00e8800b6
:101e4c0023003700204480003144800018c0b300c8
:101e5c006011b800dafa07000000e00001003d0054
:101e6c000044eb000804e00019003200200e800052
:101e7c008000eb0015fb0700d2cc2c00c3f4230030
:101e8c00e0fb07000002be002044800031448000cb
:101e9c0018c0b3000001be000400be00c8fa070061
:101eac000000e00001003d000044eb000804e000ed
:101ebc000700320020448000314480000001be0045
:101ecc00fff90700e6fa070000007800d00e880042
:101edc00404680005146800060468800714688006c
:101eec0020468000314680004046880051468800dc
:101efc00004680001146800020468800314688004c
:101f0c002044800031448000604388007143880085
:101f1c004f04be000080fa00000006000000fa002a
:101f2c00e0ff2f00bbf9070031332700d0f82f005a
:101f3c00d9f907000080fa00000006000000fa0042
:101f4c0050ff2f00c2f9070051b82000d0f82f0025
:101f5c00d5f907000080fa00000006000000fa0026
:101f6c0000f02f0040158800600420000015880048
:101f7c00c030200010158800aa22ef00f0f32000da
:101f8c002015880030002000301588008d60a800d6
:101f9c00c10480000000270001007000c00488000c
:101fac00a1e2a8000080fa00000006000000fa0080
:101fbc0090e0a9009160a90000f02f00a00e88000d
:101fcc0000fc2f00c016880000002800000e8800be
:101fdc00f0ff2000400e880020002000500e8800ea
:101fec00d021ef0060122000200e88000080fa0043
:101ffc00000006000c00fa004007980051079800fa
:10200c0010c0b300004f7800007122001007980038
:10201c000000eb00200798002d003700de00900038
:10202c001e00900000017800110009008280d80089
:10203c00300798003e0090000000e0000c003200d9
:10204c003e0090000040780002c3b3008240400084
:10205c004e009000014878004e0090000000e8000f
:10206c00400798000040eb00004f78000900370053
:10207c001e4078000004e00006003a004e0090007c
:10208c0001c3b300014878004e0090000000e80046
:10209c0040079800be0090001e0090000088b90018
:1020ac0000007800de00900000805000500798007f
:1020bc009e009000d0cc2c000008b8004308de0035
:1020cc00100798002e0090000000e80020079800f0
:1020dc002e009000e30f5000d0ff36005e00900001
:1020ec000040780002c3b300824040004e009000d4
:1020fc00014878004e0090000000e800400798006e
:10210c004e0090008040eb00014878000080fa00ff
:10211c00000006000800fa00604798006e4090002e
:10212c000080fb006f0f60006e4090000080fb0091
:10213c004400de00004078000080fb00100798008f
:10214c001e0090006a00b900000078001e004000dc
:10215c00200798002e009000004078000080fa00c4
:10216c00000006000800fa00604798006e409000de
:10217c008080fb00d0cc2c000008b8004308de00a7
:10218c00004078000080fb00000f78006e4090004b
:10219c000081fb00d0cc2c000010b8004308de00fe
:1021ac006a00b9000000780000005100004078007f
:1021bc000080fb00100798001e007800c400dd00b2
:1021cc001e00900000804000200798002e00900018
:1021dc00004078000080fa00000006000600fa00bb
:1021ec00200798002e009000c200de00b0472100ae
:1021fc000008b8000100d100004f780001c3b30003
:10220c001ec04000e20107009e80fb00c0f92f00b9
:10221c000088b90000007800800078002e00900043
:10222c0080804000d0cc2c000008b8004308de00b1
:10223c00104798001e4090000043b000d4010700e6
:10224c00e0c2b300d20107009e409000600f200056
:10225c000088b90000007800004178009e407800aa
:10226c00c00920000088b900000078000040780008
:10227c00804041002e0090000040780000c04000db
:10228c00204798002e4090000043b000c00107008a
:10229c000080fa00000006000600fa0020079800f3
:1022ac002e009000c300de00500c22000008b80085
:1022bc004408de00004f780001c3b3001ec040008c
:1022cc00b3010700e0c2b300b10107009e80fb0020
:1022dc0080c12f000088b9000000780080007800d1
:1022ec002e00900000804000c200de00b0472100ac
:1022fc000008b8000100d100104798001e40900063
:10230c000043b000a20107001e4090008080fb003b
:10231c00c0f92f000088b900000178009e80fb00f6
:10232c0080c12f000088b900000078000000410037
:10233c00800078002e00900080804000d0cc2c00d3
:10234c000008b8004308de00204798002e4090009b
:10235c000043b0008e010700ae409000600f2000db
:10236c000088b90000007800004178009e40900081
:10237c00c00920000088b900000078008041780076
:10238c001e4078007800b90000007800004078000a
:10239c0000c04100804041002e00900000407800b9
:1023ac0000c04000304798003e4090000043b00011
:1023bc00770107000080fa00000006000000fa0018
:1023cc0010c0b30032010700080207008040eb0088
:1023dc000040eb008e010700808f28009a01070057
:1023ec006041800071418000020020000312240033
:1023fc0084fa07009af907000000780077ff0700bd
:10240c008040eb0070c0b30081010700c08f280032
:10241c008d0107008040eb0080c0b3007c010700f9
:10242c00e08f2800880107008041800091418000e6
:10243c0002002000a347240072fa070088f9070065
:10244c000000780094ff070011c0b3000040eb00bf
:10245c006f010700209028007b010700a04180003d
:10246c00b1418000020020000312240065fa07002d
:10247c007bf907000000780058ff070011c0b3007b
:10248c0070c0b30062010700c08f28006e01070006
:10249c0011c0b30080c0b3005d010700609028003c
:1024ac0069010700c0418000d1418000020020007a
:1024bc00a347240053fa070069f9070000007800cd
:1024cc0075ff07000080fa00000006000000fa000b
:1024dc0010c0b300ee000700c40107008040eb0001
:1024ec000040eb004a010700a090280056010700ad
:1024fc008040eb0050c0b30045010700e040800075
:10250c00f140800002002000a34724003dfa0700a0
:10251c0053f90700000078005fff07000080fa0005
:10252c00000006000800fa0011c0b3000040eb00e8
:10253c0037010700009128004301070011c0b300c8
:10254c0070c0b30032010700c08f28003e010700a5
:10255c0011c0b30080c0b3002d010700a042800061
:10256c00b14280000200280083382400b1f8070033
:10257c0002002000832c240022fa0700eff8070049
:10258c00009fbe000297be006022b8000600240027
:10259c00f70824003e00be002e01be00a3f9070080
:1025ac0009f90700000078001100070011c0b30002
:1025bc00d0c0b3001601070080912800220107004b
:1025cc000080fa00000006000000fa0011c0b30001
:1025dc000040eb000e010700a09128001a01070033
:1025ec00b0922800180107000080fa0000000600d5
:1025fc000600fa00200798002e009000c300de00b1
:10260c00500c22000008b8004408de00004f78008f
:10261c0001c3b3001ec04000dd0007009e80fb001c
:10262c0080c12f000088b90000007800800078007d
:10263c002e00900000804000c200de00b047210058
:10264c000008b8000100d100104798001e4090000f
:10265c000043b000ce0007001e4090008080fb00bd
:10266c00c0f92f000088b900000178009e80fb00a3
:10267c0080c12f000088b9000000780000004100e4
:10268c00800078002e00900080804000d0cc2c0080
:10269c000008b8004308de00204798002e40900048
:1026ac000043b000ba000700e0c2b300b800070056
:1026bc00ae409000600f20000088b9000000780048
:1026cc00004178009e409000c00920000088b900ad
:1026dc0000007800804178001e4078007800b90036
:1026ec00000078000040780000c0410080404100ac
:1026fc002e0090000040780000c040003047980049
:10270c003e4090000043b000a10007000080fa009a
:10271c00000006000000fa0010c0b3005c000700c7
:10272c00320107008040eb000040eb00b8000700ce
:10273c0070932800c40007008040eb0060c0b30019
:10274c00b3000700c08f2800bf0007008040eb00db
:10275c0080c0b300ae000700604180007141800072
:10276c000200200003122400a6f90700bcf80700a1
:10277c000000780099fe07000080fa0000000600b7
:10278c000000fa00b0168000704a8800a8e2a80089
:10279c00cae2a900b116800000ff2f000080600083
:1027ac00b01688009116800000ff2f00008060009a
:1027bc0090168800c6e2a900de02a900de22a9005c
:1027cc00b116800000ff2f0000806000b01688005a
:1027dc00b01680003000b300b016880072000700fd
:1027ec0002010700b116800000ff2f00008060007e
:1027fc00b0168800b01680003000b300b016880008
:10280c0069000700f9000700b116800000ff2f00d7
:10281c0000806000b0168800b01680003000b30055
:10282c00b016880060000700f0000700b1168000a9
:10283c0000ff2f0000806000b0168800b0168000ea
:10284c000010a000b016880057000700e700070032
:10285c0080c2b3000e000700f0000700c0c0b30038
:10286c000b000700ed00070060c0b3000800070074
:10287c00ea00070010c0b30005000700db000700ea
:10288c00704a8000b01688000080fa000000060034
:10289c000200fa00004f7800b0168000704a8800e1
:1028ac001e80fb004400de00004078004ce9b700bd
:1028bc00b116800000ff2f00808060004cc9bf0063
:1028cc000080fb0001007000b01688003600070085
:1028dc009e4078006fc060004ce9b700b1168000d4
:1028ec0000ff2f00808060004cc9bf000080fb00ff
:1028fc0001007000b01688002b000700704a8000a1
:10290c00b0168800c50007000080fa000000060021
:10291c000200fa00004f7800b0168000704a880060
:10292c001e80fb004400de00004078004ce9b7003c
:10293c00b116800000ff2f00808060004cc9bf00e2
:10294c000080fb0001007000b01688002300070017
:10295c009e4078006fc060004ce9b700b116800053
:10296c0000ff2f00808060004cc9bf000080fb007e
:10297c0001007000b016880018000700704a800033
:10298c00b0168800a50007000080fa0000000600c1
:10299c000200fa00004f78001e407800dcff0700b0
:1029ac000080fa00000006000000fa00e202a90014
:1029bc0000000000e222a90000000000cae2a8000a
:1029cc0000000000000000000000000000000000fb
:1029dc00cae2a9000080fa00000006000000fa001c
:1029ec00e202a80000000000e222a90000000000a2
:1029fc00cae2a80000000000000000000000000077
:102a0c0000000000cae2a9000080fa0000000600e5
:102a1c000200fa00004f7800114798001e40900009
:102a2c000080fb000080e8008040780060002000ff
:102a3c000008dd001e40400095ff070077000700ee
:102a4c000080fa00000006000200fa00000f780077
:102a5c001e007800104078004de9b7004dc9bf004a
:102a6c000004e000040032004dc9bf00a8ff0700bd
:102a7c001e0fe800f6ff37000080fa000000060089
:102a8c000200fa00000f78001e0078001040780059
:102a9c004de9b7004dc9bf000004e000040032004e
:102aac004dc9bf009aff07001e0fe800f6ff370064
:102abc000080fa00000006000400fa00204798008d
:102acc002e4090000080fb004400de00004f780098
:102adc001e407800e94f50000300360071c3b3006c
:102aec001ecf40000200370001c3b3001ecf4000d0
:102afc001e40780086ff07002e4090006f4f60004c
:102b0c001e407800e94f50000300360071c3b3003b
:102b1c001ecf40000200370001c3b3001ecf40009f
:102b2c001e4078007aff07000080fa0000000600c3
:102b3c000600fa00404798004e4090000080fb00d1
:102b4c00c200de00b04721000008b8000100d1002f
:102b5c00004f780001c3b3001ec040008cff07007b
:102b6c004e4090000081fb009e80fb00c0f92f00be
:102b7c000088b90000007800000141007066260052
:102b8c000090b900c288de004f90de00008050003b
:102b9c00104798001e4090000043b0007cff0700d7
:102bac009e409000600f20000088b9000000780063
:102bbc00004178009e407800c00920000088b900d0
:102bcc000000780000407800804041004e409000aa
:102bdc0000c04000204798002e4090000043b000f9
:102bec006bff07000080fa00000006000200fa00ec
:102bfc000000eb00000f7800020037000700070010
:102c0c001e0fe800300620009e007800808f5000d8
:102c1c00faff34000080fa00000006000400fa00fd
:102c2c000000eb00000f7800040037001e0090003d
:102c3c000000e800100798001e0fe800700c200040
:102c4c009e007800808f5000f8ff34000080fa005e
:042c5c00000006006e
:020000040000fa
:102c60004c09000004000000000000000008000003
:102c7000f800000000000000f80800005400000008
:102c80000200000017b7d100380000003442cd0028
:102c9000cc64410000005400426666001e41cd0035
:102ca000cce4410066661e004100000020420000a6
:102cb00000a041000000c800420040009c46ac005b
:102cc000c5273700000080003f000000c842ac006c
:102cd000c5273700cdcccc003d000000c842ac0079
:102ce000c52737008fc2f5003d000000c842ac0088
:082cf000c527370000000000b9
:020000040000fa
:0200000401f009
:040000000783000072
:020000040000fa
:0200000401f009
:040004003f000000b9
:020000040000fa
:0200000401f009
:04000800338700003a
:020000040000fa
:0200000401f009
:04001400ffffff00eb
:00000001FF
